{
  "_format": "hh-sol-artifact-1",
  "contractName": "UniswapKey",
  "sourceName": "contracts/UniswapKey.sol",
  "abi": [
    {
      "inputs": [],
      "stateMutability": "nonpayable",
      "type": "constructor"
    },
    {
      "inputs": [
        {
          "internalType": "address",
          "name": "owner",
          "type": "address"
        },
        {
          "internalType": "int24",
          "name": "tickLower",
          "type": "int24"
        },
        {
          "internalType": "int24",
          "name": "tickUpper",
          "type": "int24"
        }
      ],
      "name": "compute",
      "outputs": [
        {
          "internalType": "bytes32",
          "name": "",
          "type": "bytes32"
        }
      ],
      "stateMutability": "pure",
      "type": "function"
    }
  ],
  "bytecode": "0x608060405234801561001057600080fd5b50610101806100206000396000f3fe6080604052348015600f57600080fd5b506004361060285760003560e01c80634f3f23e414602d575b600080fd5b606360048036036060811015604157600080fd5b506001600160a01b03813516906020810135600290810b9160400135900b6075565b60408051918252519081900360200190f35b6040805160609490941b6bffffffffffffffffffffffff1916602080860191909152600293840b60e890811b60348701529290930b90911b60378401528051808403601a018152603a909301905281519101209056fea264697066735822122077f99addad55128d1bc5b1668f8bb44775c65f69b2f1b3bfc6c359eaaf85a9ec64736f6c63430007060033",
  "linkReferences": {},
  "deployedLinkReferences": {}
}