{
  "_format": "hh-sol-artifact-1",
  "contractName": "UniswapKey",
  "sourceName": "contracts/UniswapKey.sol",
  "abi": [
    {
      "inputs": [],
      "stateMutability": "nonpayable",
      "type": "constructor"
    },
    {
      "inputs": [
        {
          "internalType": "address",
          "name": "owner",
          "type": "address"
        },
        {
          "internalType": "int24",
          "name": "tickLower",
          "type": "int24"
        },
        {
          "internalType": "int24",
          "name": "tickUpper",
          "type": "int24"
        }
      ],
      "name": "compute",
      "outputs": [
        {
          "internalType": "bytes32",
          "name": "",
          "type": "bytes32"
        }
      ],
      "stateMutability": "pure",
      "type": "function"
    }
  ],
  "bytecode": "0x608060405234801561001057600080fd5b5061013f806100206000396000f3fe608060405234801561001057600080fd5b506004361061002b5760003560e01c80634f3f23e414610030575b600080fd5b61008c6004803603606081101561004657600080fd5b81019080803573ffffffffffffffffffffffffffffffffffffffff169060200190929190803560020b9060200190929190803560020b90602001909291905050506100a2565b6040518082815260200191505060405180910390f35b6000838383604051602001808473ffffffffffffffffffffffffffffffffffffffff1660601b81526014018360020b60e81b81526003018260020b60e81b81526003019350505050604051602081830303815290604052805190602001209050939250505056fea2646970667358221220d318e6b1c3203638336fb67b7b1f5be026c9980b0152cb580bb1876f6934d99564736f6c63430007030033",
  "linkReferences": {},
  "deployedLinkReferences": {}
}