{
  "_format": "hh-sol-artifact-1",
  "contractName": "ERC20PresetMinterPauser",
  "sourceName": "@openzeppelin/contracts/presets/ERC20PresetMinterPauser.sol",
  "abi": [
    {
      "inputs": [
        {
          "internalType": "string",
          "name": "name",
          "type": "string"
        },
        {
          "internalType": "string",
          "name": "symbol",
          "type": "string"
        }
      ],
      "stateMutability": "nonpayable",
      "type": "constructor"
    },
    {
      "anonymous": false,
      "inputs": [
        {
          "indexed": true,
          "internalType": "address",
          "name": "owner",
          "type": "address"
        },
        {
          "indexed": true,
          "internalType": "address",
          "name": "spender",
          "type": "address"
        },
        {
          "indexed": false,
          "internalType": "uint256",
          "name": "value",
          "type": "uint256"
        }
      ],
      "name": "Approval",
      "type": "event"
    },
    {
      "anonymous": false,
      "inputs": [
        {
          "indexed": false,
          "internalType": "address",
          "name": "account",
          "type": "address"
        }
      ],
      "name": "Paused",
      "type": "event"
    },
    {
      "anonymous": false,
      "inputs": [
        {
          "indexed": true,
          "internalType": "bytes32",
          "name": "role",
          "type": "bytes32"
        },
        {
          "indexed": true,
          "internalType": "bytes32",
          "name": "previousAdminRole",
          "type": "bytes32"
        },
        {
          "indexed": true,
          "internalType": "bytes32",
          "name": "newAdminRole",
          "type": "bytes32"
        }
      ],
      "name": "RoleAdminChanged",
      "type": "event"
    },
    {
      "anonymous": false,
      "inputs": [
        {
          "indexed": true,
          "internalType": "bytes32",
          "name": "role",
          "type": "bytes32"
        },
        {
          "indexed": true,
          "internalType": "address",
          "name": "account",
          "type": "address"
        },
        {
          "indexed": true,
          "internalType": "address",
          "name": "sender",
          "type": "address"
        }
      ],
      "name": "RoleGranted",
      "type": "event"
    },
    {
      "anonymous": false,
      "inputs": [
        {
          "indexed": true,
          "internalType": "bytes32",
          "name": "role",
          "type": "bytes32"
        },
        {
          "indexed": true,
          "internalType": "address",
          "name": "account",
          "type": "address"
        },
        {
          "indexed": true,
          "internalType": "address",
          "name": "sender",
          "type": "address"
        }
      ],
      "name": "RoleRevoked",
      "type": "event"
    },
    {
      "anonymous": false,
      "inputs": [
        {
          "indexed": true,
          "internalType": "address",
          "name": "from",
          "type": "address"
        },
        {
          "indexed": true,
          "internalType": "address",
          "name": "to",
          "type": "address"
        },
        {
          "indexed": false,
          "internalType": "uint256",
          "name": "value",
          "type": "uint256"
        }
      ],
      "name": "Transfer",
      "type": "event"
    },
    {
      "anonymous": false,
      "inputs": [
        {
          "indexed": false,
          "internalType": "address",
          "name": "account",
          "type": "address"
        }
      ],
      "name": "Unpaused",
      "type": "event"
    },
    {
      "inputs": [],
      "name": "DEFAULT_ADMIN_ROLE",
      "outputs": [
        {
          "internalType": "bytes32",
          "name": "",
          "type": "bytes32"
        }
      ],
      "stateMutability": "view",
      "type": "function"
    },
    {
      "inputs": [],
      "name": "MINTER_ROLE",
      "outputs": [
        {
          "internalType": "bytes32",
          "name": "",
          "type": "bytes32"
        }
      ],
      "stateMutability": "view",
      "type": "function"
    },
    {
      "inputs": [],
      "name": "PAUSER_ROLE",
      "outputs": [
        {
          "internalType": "bytes32",
          "name": "",
          "type": "bytes32"
        }
      ],
      "stateMutability": "view",
      "type": "function"
    },
    {
      "inputs": [
        {
          "internalType": "address",
          "name": "owner",
          "type": "address"
        },
        {
          "internalType": "address",
          "name": "spender",
          "type": "address"
        }
      ],
      "name": "allowance",
      "outputs": [
        {
          "internalType": "uint256",
          "name": "",
          "type": "uint256"
        }
      ],
      "stateMutability": "view",
      "type": "function"
    },
    {
      "inputs": [
        {
          "internalType": "address",
          "name": "spender",
          "type": "address"
        },
        {
          "internalType": "uint256",
          "name": "amount",
          "type": "uint256"
        }
      ],
      "name": "approve",
      "outputs": [
        {
          "internalType": "bool",
          "name": "",
          "type": "bool"
        }
      ],
      "stateMutability": "nonpayable",
      "type": "function"
    },
    {
      "inputs": [
        {
          "internalType": "address",
          "name": "account",
          "type": "address"
        }
      ],
      "name": "balanceOf",
      "outputs": [
        {
          "internalType": "uint256",
          "name": "",
          "type": "uint256"
        }
      ],
      "stateMutability": "view",
      "type": "function"
    },
    {
      "inputs": [
        {
          "internalType": "uint256",
          "name": "amount",
          "type": "uint256"
        }
      ],
      "name": "burn",
      "outputs": [],
      "stateMutability": "nonpayable",
      "type": "function"
    },
    {
      "inputs": [
        {
          "internalType": "address",
          "name": "account",
          "type": "address"
        },
        {
          "internalType": "uint256",
          "name": "amount",
          "type": "uint256"
        }
      ],
      "name": "burnFrom",
      "outputs": [],
      "stateMutability": "nonpayable",
      "type": "function"
    },
    {
      "inputs": [],
      "name": "decimals",
      "outputs": [
        {
          "internalType": "uint8",
          "name": "",
          "type": "uint8"
        }
      ],
      "stateMutability": "view",
      "type": "function"
    },
    {
      "inputs": [
        {
          "internalType": "address",
          "name": "spender",
          "type": "address"
        },
        {
          "internalType": "uint256",
          "name": "subtractedValue",
          "type": "uint256"
        }
      ],
      "name": "decreaseAllowance",
      "outputs": [
        {
          "internalType": "bool",
          "name": "",
          "type": "bool"
        }
      ],
      "stateMutability": "nonpayable",
      "type": "function"
    },
    {
      "inputs": [
        {
          "internalType": "bytes32",
          "name": "role",
          "type": "bytes32"
        }
      ],
      "name": "getRoleAdmin",
      "outputs": [
        {
          "internalType": "bytes32",
          "name": "",
          "type": "bytes32"
        }
      ],
      "stateMutability": "view",
      "type": "function"
    },
    {
      "inputs": [
        {
          "internalType": "bytes32",
          "name": "role",
          "type": "bytes32"
        },
        {
          "internalType": "uint256",
          "name": "index",
          "type": "uint256"
        }
      ],
      "name": "getRoleMember",
      "outputs": [
        {
          "internalType": "address",
          "name": "",
          "type": "address"
        }
      ],
      "stateMutability": "view",
      "type": "function"
    },
    {
      "inputs": [
        {
          "internalType": "bytes32",
          "name": "role",
          "type": "bytes32"
        }
      ],
      "name": "getRoleMemberCount",
      "outputs": [
        {
          "internalType": "uint256",
          "name": "",
          "type": "uint256"
        }
      ],
      "stateMutability": "view",
      "type": "function"
    },
    {
      "inputs": [
        {
          "internalType": "bytes32",
          "name": "role",
          "type": "bytes32"
        },
        {
          "internalType": "address",
          "name": "account",
          "type": "address"
        }
      ],
      "name": "grantRole",
      "outputs": [],
      "stateMutability": "nonpayable",
      "type": "function"
    },
    {
      "inputs": [
        {
          "internalType": "bytes32",
          "name": "role",
          "type": "bytes32"
        },
        {
          "internalType": "address",
          "name": "account",
          "type": "address"
        }
      ],
      "name": "hasRole",
      "outputs": [
        {
          "internalType": "bool",
          "name": "",
          "type": "bool"
        }
      ],
      "stateMutability": "view",
      "type": "function"
    },
    {
      "inputs": [
        {
          "internalType": "address",
          "name": "spender",
          "type": "address"
        },
        {
          "internalType": "uint256",
          "name": "addedValue",
          "type": "uint256"
        }
      ],
      "name": "increaseAllowance",
      "outputs": [
        {
          "internalType": "bool",
          "name": "",
          "type": "bool"
        }
      ],
      "stateMutability": "nonpayable",
      "type": "function"
    },
    {
      "inputs": [
        {
          "internalType": "address",
          "name": "to",
          "type": "address"
        },
        {
          "internalType": "uint256",
          "name": "amount",
          "type": "uint256"
        }
      ],
      "name": "mint",
      "outputs": [],
      "stateMutability": "nonpayable",
      "type": "function"
    },
    {
      "inputs": [],
      "name": "name",
      "outputs": [
        {
          "internalType": "string",
          "name": "",
          "type": "string"
        }
      ],
      "stateMutability": "view",
      "type": "function"
    },
    {
      "inputs": [],
      "name": "pause",
      "outputs": [],
      "stateMutability": "nonpayable",
      "type": "function"
    },
    {
      "inputs": [],
      "name": "paused",
      "outputs": [
        {
          "internalType": "bool",
          "name": "",
          "type": "bool"
        }
      ],
      "stateMutability": "view",
      "type": "function"
    },
    {
      "inputs": [
        {
          "internalType": "bytes32",
          "name": "role",
          "type": "bytes32"
        },
        {
          "internalType": "address",
          "name": "account",
          "type": "address"
        }
      ],
      "name": "renounceRole",
      "outputs": [],
      "stateMutability": "nonpayable",
      "type": "function"
    },
    {
      "inputs": [
        {
          "internalType": "bytes32",
          "name": "role",
          "type": "bytes32"
        },
        {
          "internalType": "address",
          "name": "account",
          "type": "address"
        }
      ],
      "name": "revokeRole",
      "outputs": [],
      "stateMutability": "nonpayable",
      "type": "function"
    },
    {
      "inputs": [],
      "name": "symbol",
      "outputs": [
        {
          "internalType": "string",
          "name": "",
          "type": "string"
        }
      ],
      "stateMutability": "view",
      "type": "function"
    },
    {
      "inputs": [],
      "name": "totalSupply",
      "outputs": [
        {
          "internalType": "uint256",
          "name": "",
          "type": "uint256"
        }
      ],
      "stateMutability": "view",
      "type": "function"
    },
    {
      "inputs": [
        {
          "internalType": "address",
          "name": "recipient",
          "type": "address"
        },
        {
          "internalType": "uint256",
          "name": "amount",
          "type": "uint256"
        }
      ],
      "name": "transfer",
      "outputs": [
        {
          "internalType": "bool",
          "name": "",
          "type": "bool"
        }
      ],
      "stateMutability": "nonpayable",
      "type": "function"
    },
    {
      "inputs": [
        {
          "internalType": "address",
          "name": "sender",
          "type": "address"
        },
        {
          "internalType": "address",
          "name": "recipient",
          "type": "address"
        },
        {
          "internalType": "uint256",
          "name": "amount",
          "type": "uint256"
        }
      ],
      "name": "transferFrom",
      "outputs": [
        {
          "internalType": "bool",
          "name": "",
          "type": "bool"
        }
      ],
      "stateMutability": "nonpayable",
      "type": "function"
    },
    {
      "inputs": [],
      "name": "unpause",
      "outputs": [],
      "stateMutability": "nonpayable",
      "type": "function"
    }
  ],
  "bytecode": "0x60806040523480156200001157600080fd5b5060405162001c9b38038062001c9b833981810160405260408110156200003757600080fd5b81019080805160405193929190846401000000008211156200005857600080fd5b9083019060208201858111156200006e57600080fd5b82516401000000008111828201881017156200008957600080fd5b82525081516020918201929091019080838360005b83811015620000b85781810151838201526020016200009e565b50505050905090810190601f168015620000e65780820380516001836020036101000a031916815260200191505b50604052602001805160405193929190846401000000008211156200010a57600080fd5b9083019060208201858111156200012057600080fd5b82516401000000008111828201881017156200013b57600080fd5b82525081516020918201929091019080838360005b838110156200016a57818101518382015260200162000150565b50505050905090810190601f168015620001985780820380516001836020036101000a031916815260200191505b50604052505082518391508290620001b890600490602085019062000375565b508051620001ce90600590602084019062000375565b50506006805461ff001960ff1990911660121716905550620001fb6000620001f562000261565b62000265565b6200022a7f9f2df0fed2c77648de5860a4cc508cd0818c85b8b8a1ab4ceeef8d981c8956a6620001f562000261565b620002597f65d7a28e3265b37a6474929f336521b332c1681b933f6cb9f3376673440d862a620001f562000261565b505062000421565b3390565b62000271828262000275565b5050565b6000828152602081815260409091206200029a91839062000b81620002ee821b17901c565b156200027157620002aa62000261565b6001600160a01b0316816001600160a01b0316837f2f8788117e7eff1d82e926ec794901d17c78024a50270940304540a733656f0d60405160405180910390a45050565b600062000305836001600160a01b0384166200030e565b90505b92915050565b60006200031c83836200035d565b620003545750815460018181018455600084815260208082209093018490558454848252828601909352604090209190915562000308565b50600062000308565b60009081526001919091016020526040902054151590565b828054600181600116156101000203166002900490600052602060002090601f016020900481019282620003ad5760008555620003f8565b82601f10620003c857805160ff1916838001178555620003f8565b82800160010185558215620003f8579182015b82811115620003f8578251825591602001919060010190620003db565b50620004069291506200040a565b5090565b5b808211156200040657600081556001016200040b565b61186a80620004316000396000f3fe608060405234801561001057600080fd5b50600436106101795760003560e01c806370a08231116100d9578063a457c2d711610087578063a457c2d71461047a578063a9059cbb146104a6578063ca15c873146104d2578063d5391393146104ef578063d547741f146104f7578063dd62ed3e14610523578063e63ab1e91461055157610179565b806370a08231146103a557806379cc6790146103cb5780638456cb59146103f75780639010d07c146103ff57806391d148541461043e57806395d89b411461046a578063a217fddf1461047257610179565b8063313ce56711610136578063313ce567146102d657806336568abe146102f457806339509351146103205780633f4ba83a1461034c57806340c10f191461035457806342966c68146103805780635c975abb1461039d57610179565b806306fdde031461017e578063095ea7b3146101fb57806318160ddd1461023b57806323b872dd14610255578063248a9ca31461028b5780632f2ff15d146102a8575b600080fd5b610186610559565b6040805160208082528351818301528351919283929083019185019080838360005b838110156101c05781810151838201526020016101a8565b50505050905090810190601f1680156101ed5780820380516001836020036101000a031916815260200191505b509250505060405180910390f35b6102276004803603604081101561021157600080fd5b506001600160a01b0381351690602001356105ef565b604080519115158252519081900360200190f35b61024361060d565b60408051918252519081900360200190f35b6102276004803603606081101561026b57600080fd5b506001600160a01b03813581169160208101359091169060400135610613565b610243600480360360208110156102a157600080fd5b503561069a565b6102d4600480360360408110156102be57600080fd5b50803590602001356001600160a01b03166106af565b005b6102de61071b565b6040805160ff9092168252519081900360200190f35b6102d46004803603604081101561030a57600080fd5b50803590602001356001600160a01b0316610724565b6102276004803603604081101561033657600080fd5b506001600160a01b038135169060200135610785565b6102d46107d3565b6102d46004803603604081101561036a57600080fd5b506001600160a01b038135169060200135610832565b6102d46004803603602081101561039657600080fd5b50356108a3565b6102276108b7565b610243600480360360208110156103bb57600080fd5b50356001600160a01b03166108c5565b6102d4600480360360408110156103e157600080fd5b506001600160a01b0381351690602001356108e0565b6102d461093a565b6104226004803603604081101561041557600080fd5b5080359060200135610997565b604080516001600160a01b039092168252519081900360200190f35b6102276004803603604081101561045457600080fd5b50803590602001356001600160a01b03166109b6565b6101866109ce565b610243610a2f565b6102276004803603604081101561049057600080fd5b506001600160a01b038135169060200135610a34565b610227600480360360408110156104bc57600080fd5b506001600160a01b038135169060200135610a9c565b610243600480360360208110156104e857600080fd5b5035610ab0565b610243610ac7565b6102d46004803603604081101561050d57600080fd5b50803590602001356001600160a01b0316610aeb565b6102436004803603604081101561053957600080fd5b506001600160a01b0381358116916020013516610b44565b610243610b6f565b60048054604080516020601f60026000196101006001881615020190951694909404938401819004810282018101909252828152606093909290918301828280156105e55780601f106105ba576101008083540402835291602001916105e5565b820191906000526020600020905b8154815290600101906020018083116105c857829003601f168201915b5050505050905090565b60006106036105fc610b96565b8484610b9a565b5060015b92915050565b60035490565b6000610620848484610c86565b6106908461062c610b96565b61068b85604051806060016040528060288152602001611654602891396001600160a01b038a1660009081526002602052604081209061066a610b96565b6001600160a01b031681526020810191909152604001600020549190610dd1565b610b9a565b5060019392505050565b60009081526020819052604090206002015490565b6000828152602081905260409020600201546106d2906106cd610b96565b6109b6565b61070d5760405162461bcd60e51b815260040180806020018281038252602f815260200180611552602f913960400191505060405180910390fd5b6107178282610e68565b5050565b60065460ff1690565b61072c610b96565b6001600160a01b0316816001600160a01b03161461077b5760405162461bcd60e51b815260040180806020018281038252602f8152602001806117dc602f913960400191505060405180910390fd5b6107178282610ed1565b6000610603610792610b96565b8461068b85600260006107a3610b96565b6001600160a01b03908116825260208083019390935260409182016000908120918c168152925290205490610f3a565b6107ed60008051602061167c8339815191526106cd610b96565b6108285760405162461bcd60e51b81526004018080602001828103825260398152602001806115a36039913960400191505060405180910390fd5b610830610f94565b565b61085e7f9f2df0fed2c77648de5860a4cc508cd0818c85b8b8a1ab4ceeef8d981c8956a66106cd610b96565b6108995760405162461bcd60e51b815260040180806020018281038252603681526020018061169c6036913960400191505060405180910390fd5b6107178282611035565b6108b46108ae610b96565b82611115565b50565b600654610100900460ff1690565b6001600160a01b031660009081526001602052604090205490565b6000610917826040518060600160405280602481526020016116d2602491396109108661090b610b96565b610b44565b9190610dd1565b905061092b83610925610b96565b83610b9a565b6109358383611115565b505050565b61095460008051602061167c8339815191526106cd610b96565b61098f5760405162461bcd60e51b81526004018080602001828103825260378152602001806117806037913960400191505060405180910390fd5b6108306111ff565b60008281526020819052604081206109af9083611284565b9392505050565b60008281526020819052604081206109af9083611290565b60058054604080516020601f60026000196101006001881615020190951694909404938401819004810282018101909252828152606093909290918301828280156105e55780601f106105ba576101008083540402835291602001916105e5565b600081565b6000610603610a41610b96565b8461068b856040518060600160405280602581526020016117b76025913960026000610a6b610b96565b6001600160a01b03908116825260208083019390935260409182016000908120918d16815292529020549190610dd1565b6000610603610aa9610b96565b8484610c86565b6000818152602081905260408120610607906112a5565b7f9f2df0fed2c77648de5860a4cc508cd0818c85b8b8a1ab4ceeef8d981c8956a681565b600082815260208190526040902060020154610b09906106cd610b96565b61077b5760405162461bcd60e51b81526004018080602001828103825260308152602001806116246030913960400191505060405180910390fd5b6001600160a01b03918216600090815260026020908152604080832093909416825291909152205490565b60008051602061167c83398151915281565b60006109af836001600160a01b0384166112b0565b3390565b6001600160a01b038316610bdf5760405162461bcd60e51b815260040180806020018281038252602481526020018061175c6024913960400191505060405180910390fd5b6001600160a01b038216610c245760405162461bcd60e51b81526004018080602001828103825260228152602001806115dc6022913960400191505060405180910390fd5b6001600160a01b03808416600081815260026020908152604080832094871680845294825291829020859055815185815291517f8c5be1e5ebec7d5bd14f71427d1e84f3dd0314c0f7b2291e5b200ac8c7c3b9259281900390910190a3505050565b6001600160a01b038316610ccb5760405162461bcd60e51b81526004018080602001828103825260258152602001806117376025913960400191505060405180910390fd5b6001600160a01b038216610d105760405162461bcd60e51b815260040180806020018281038252602381526020018061152f6023913960400191505060405180910390fd5b610d1b8383836112fa565b610d58816040518060600160405280602681526020016115fe602691396001600160a01b0386166000908152600160205260409020549190610dd1565b6001600160a01b038085166000908152600160205260408082209390935590841681522054610d879082610f3a565b6001600160a01b0380841660008181526001602090815260409182902094909455805185815290519193928716926000805160206116f683398151915292918290030190a3505050565b60008184841115610e605760405162461bcd60e51b81526004018080602001828103825283818151815260200191508051906020019080838360005b83811015610e25578181015183820152602001610e0d565b50505050905090810190601f168015610e525780820380516001836020036101000a031916815260200191505b509250505060405180910390fd5b505050900390565b6000828152602081905260409020610e809082610b81565b1561071757610e8d610b96565b6001600160a01b0316816001600160a01b0316837f2f8788117e7eff1d82e926ec794901d17c78024a50270940304540a733656f0d60405160405180910390a45050565b6000828152602081905260409020610ee99082611305565b1561071757610ef6610b96565b6001600160a01b0316816001600160a01b0316837ff6391f5c32d9c69d2a47ea670b442974b53935d1edc7fd64eb21e047a839171b60405160405180910390a45050565b6000828201838110156109af576040805162461bcd60e51b815260206004820152601b60248201527f536166654d6174683a206164646974696f6e206f766572666c6f770000000000604482015290519081900360640190fd5b610f9c6108b7565b610fe4576040805162461bcd60e51b815260206004820152601460248201527314185d5cd8589b194e881b9bdd081c185d5cd95960621b604482015290519081900360640190fd5b6006805461ff00191690557f5db9ee0a495bf2e6ff9c91a7834c1ba4fdd244a5e8aa4e537bd38aeae4b073aa611018610b96565b604080516001600160a01b039092168252519081900360200190a1565b6001600160a01b038216611090576040805162461bcd60e51b815260206004820152601f60248201527f45524332303a206d696e7420746f20746865207a65726f206164647265737300604482015290519081900360640190fd5b61109c600083836112fa565b6003546110a99082610f3a565b6003556001600160a01b0382166000908152600160205260409020546110cf9082610f3a565b6001600160a01b03831660008181526001602090815260408083209490945583518581529351929391926000805160206116f68339815191529281900390910190a35050565b6001600160a01b03821661115a5760405162461bcd60e51b81526004018080602001828103825260218152602001806117166021913960400191505060405180910390fd5b611166826000836112fa565b6111a381604051806060016040528060228152602001611581602291396001600160a01b0385166000908152600160205260409020549190610dd1565b6001600160a01b0383166000908152600160205260409020556003546111c9908261131a565b6003556040805182815290516000916001600160a01b038516916000805160206116f68339815191529181900360200190a35050565b6112076108b7565b1561124c576040805162461bcd60e51b815260206004820152601060248201526f14185d5cd8589b194e881c185d5cd95960821b604482015290519081900360640190fd5b6006805461ff0019166101001790557f62e78cea01bee320cd4e420270b5ea74000d11b0c9f74754ebdbfc544b05a258611018610b96565b60006109af8383611377565b60006109af836001600160a01b0384166113db565b6000610607826113f3565b60006112bc83836113db565b6112f257508154600181810184556000848152602080822090930184905584548482528286019093526040902091909155610607565b506000610607565b6109358383836113f7565b60006109af836001600160a01b038416611446565b600082821115611371576040805162461bcd60e51b815260206004820152601e60248201527f536166654d6174683a207375627472616374696f6e206f766572666c6f770000604482015290519081900360640190fd5b50900390565b815460009082106113b95760405162461bcd60e51b815260040180806020018281038252602281526020018061150d6022913960400191505060405180910390fd5b8260000182815481106113c857fe5b9060005260206000200154905092915050565b60009081526001919091016020526040902054151590565b5490565b611402838383610935565b61140a6108b7565b156109355760405162461bcd60e51b815260040180806020018281038252602a81526020018061180b602a913960400191505060405180910390fd5b60008181526001830160205260408120548015611502578354600019808301919081019060009087908390811061147957fe5b906000526020600020015490508087600001848154811061149657fe5b6000918252602080832090910192909255828152600189810190925260409020908401905586548790806114c657fe5b60019003818190600052602060002001600090559055866001016000878152602001908152602001600020600090556001945050505050610607565b600091505061060756fe456e756d657261626c655365743a20696e646578206f7574206f6620626f756e647345524332303a207472616e7366657220746f20746865207a65726f2061646472657373416363657373436f6e74726f6c3a2073656e646572206d75737420626520616e2061646d696e20746f206772616e7445524332303a206275726e20616d6f756e7420657863656564732062616c616e636545524332305072657365744d696e7465725061757365723a206d75737420686176652070617573657220726f6c6520746f20756e706175736545524332303a20617070726f766520746f20746865207a65726f206164647265737345524332303a207472616e7366657220616d6f756e7420657863656564732062616c616e6365416363657373436f6e74726f6c3a2073656e646572206d75737420626520616e2061646d696e20746f207265766f6b6545524332303a207472616e7366657220616d6f756e74206578636565647320616c6c6f77616e636565d7a28e3265b37a6474929f336521b332c1681b933f6cb9f3376673440d862a45524332305072657365744d696e7465725061757365723a206d7573742068617665206d696e74657220726f6c6520746f206d696e7445524332303a206275726e20616d6f756e74206578636565647320616c6c6f77616e6365ddf252ad1be2c89b69c2b068fc378daa952ba7f163c4a11628f55a4df523b3ef45524332303a206275726e2066726f6d20746865207a65726f206164647265737345524332303a207472616e736665722066726f6d20746865207a65726f206164647265737345524332303a20617070726f76652066726f6d20746865207a65726f206164647265737345524332305072657365744d696e7465725061757365723a206d75737420686176652070617573657220726f6c6520746f20706175736545524332303a2064656372656173656420616c6c6f77616e63652062656c6f77207a65726f416363657373436f6e74726f6c3a2063616e206f6e6c792072656e6f756e636520726f6c657320666f722073656c6645524332305061757361626c653a20746f6b656e207472616e73666572207768696c6520706175736564a2646970667358221220f2c05f101532b4e05216778618fcf9318adf2ac9165fc010cfc691dc7db1ec7264736f6c63430007060033",
  "linkReferences": {},
  "deployedLinkReferences": {}
}